{"abi":[{"type":"constructor","inputs":[{"name":"initialOwner","type":"address","internalType":"address"},{"name":"_identityRegistry","type":"address","internalType":"address"}],"stateMutability":"nonpayable"},{"type":"function","name":"DOMAIN_SEPARATOR","inputs":[],"outputs":[{"name":"","type":"bytes32","internalType":"bytes32"}],"stateMutability":"view"},{"type":"function","name":"allowance","inputs":[{"name":"owner","type":"address","internalType":"address"},{"name":"spender","type":"address","internalType":"address"}],"outputs":[{"name":"","type":"uint256","internalType":"uint256"}],"stateMutability":"view"},{"type":"function","name":"approve","inputs":[{"name":"spender","type":"address","internalType":"address"},{"name":"value","type":"uint256","internalType":"uint256"}],"outputs":[{"name":"","type":"bool","internalType":"bool"}],"stateMutability":"nonpayable"},{"type":"function","name":"balanceOf","inputs":[{"name":"account","type":"address","internalType":"address"}],"outputs":[{"name":"","type":"uint256","internalType":"uint256"}],"stateMutability":"view"},{"type":"function","name":"decimals","inputs":[],"outputs":[{"name":"","type":"uint8","internalType":"uint8"}],"stateMutability":"view"},{"type":"function","name":"eip712Domain","inputs":[],"outputs":[{"name":"fields","type":"bytes1","internalType":"bytes1"},{"name":"name","type":"string","internalType":"string"},{"name":"version","type":"string","internalType":"string"},{"name":"chainId","type":"uint256","internalType":"uint256"},{"name":"verifyingContract","type":"address","internalType":"address"},{"name":"salt","type":"bytes32","internalType":"bytes32"},{"name":"extensions","type":"uint256[]","internalType":"uint256[]"}],"stateMutability":"view"},{"type":"function","name":"identityRegistry","inputs":[],"outputs":[{"name":"","type":"address","internalType":"contract IdentityRegistry"}],"stateMutability":"view"},{"type":"function","name":"mint","inputs":[{"name":"to","type":"address","internalType":"address"},{"name":"amount","type":"uint256","internalType":"uint256"}],"outputs":[],"stateMutability":"nonpayable"},{"type":"function","name":"name","inputs":[],"outputs":[{"name":"","type":"string","internalType":"string"}],"stateMutability":"view"},{"type":"function","name":"nonces","inputs":[{"name":"owner","type":"address","internalType":"address"}],"outputs":[{"name":"","type":"uint256","internalType":"uint256"}],"stateMutability":"view"},{"type":"function","name":"owner","inputs":[],"outputs":[{"name":"","type":"address","internalType":"address"}],"stateMutability":"view"},{"type":"function","name":"permit","inputs":[{"name":"owner","type":"address","internalType":"address"},{"name":"spender","type":"address","internalType":"address"},{"name":"value","type":"uint256","internalType":"uint256"},{"name":"deadline","type":"uint256","internalType":"uint256"},{"name":"v","type":"uint8","internalType":"uint8"},{"name":"r","type":"bytes32","internalType":"bytes32"},{"name":"s","type":"bytes32","internalType":"bytes32"}],"outputs":[],"stateMutability":"nonpayable"},{"type":"function","name":"renounceOwnership","inputs":[],"outputs":[],"stateMutability":"nonpayable"},{"type":"function","name":"symbol","inputs":[],"outputs":[{"name":"","type":"string","internalType":"string"}],"stateMutability":"view"},{"type":"function","name":"totalSupply","inputs":[],"outputs":[{"name":"","type":"uint256","internalType":"uint256"}],"stateMutability":"view"},{"type":"function","name":"transfer","inputs":[{"name":"to","type":"address","internalType":"address"},{"name":"value","type":"uint256","internalType":"uint256"}],"outputs":[{"name":"","type":"bool","internalType":"bool"}],"stateMutability":"nonpayable"},{"type":"function","name":"transferFrom","inputs":[{"name":"from","type":"address","internalType":"address"},{"name":"to","type":"address","internalType":"address"},{"name":"value","type":"uint256","internalType":"uint256"}],"outputs":[{"name":"","type":"bool","internalType":"bool"}],"stateMutability":"nonpayable"},{"type":"function","name":"transferOwnership","inputs":[{"name":"newOwner","type":"address","internalType":"address"}],"outputs":[],"stateMutability":"nonpayable"},{"type":"event","name":"Approval","inputs":[{"name":"owner","type":"address","indexed":true,"internalType":"address"},{"name":"spender","type":"address","indexed":true,"internalType":"address"},{"name":"value","type":"uint256","indexed":false,"internalType":"uint256"}],"anonymous":false},{"type":"event","name":"EIP712DomainChanged","inputs":[],"anonymous":false},{"type":"event","name":"OwnershipTransferred","inputs":[{"name":"previousOwner","type":"address","indexed":true,"internalType":"address"},{"name":"newOwner","type":"address","indexed":true,"internalType":"address"}],"anonymous":false},{"type":"event","name":"Transfer","inputs":[{"name":"from","type":"address","indexed":true,"internalType":"address"},{"name":"to","type":"address","indexed":true,"internalType":"address"},{"name":"value","type":"uint256","indexed":false,"internalType":"uint256"}],"anonymous":false},{"type":"error","name":"ECDSAInvalidSignature","inputs":[]},{"type":"error","name":"ECDSAInvalidSignatureLength","inputs":[{"name":"length","type":"uint256","internalType":"uint256"}]},{"type":"error","name":"ECDSAInvalidSignatureS","inputs":[{"name":"s","type":"bytes32","internalType":"bytes32"}]},{"type":"error","name":"ERC20InsufficientAllowance","inputs":[{"name":"spender","type":"address","internalType":"address"},{"name":"allowance","type":"uint256","internalType":"uint256"},{"name":"needed","type":"uint256","internalType":"uint256"}]},{"type":"error","name":"ERC20InsufficientBalance","inputs":[{"name":"sender","type":"address","internalType":"address"},{"name":"balance","type":"uint256","internalType":"uint256"},{"name":"needed","type":"uint256","internalType":"uint256"}]},{"type":"error","name":"ERC20InvalidApprover","inputs":[{"name":"approver","type":"address","internalType":"address"}]},{"type":"error","name":"ERC20InvalidReceiver","inputs":[{"name":"receiver","type":"address","internalType":"address"}]},{"type":"error","name":"ERC20InvalidSender","inputs":[{"name":"sender","type":"address","internalType":"address"}]},{"type":"error","name":"ERC20InvalidSpender","inputs":[{"name":"spender","type":"address","internalType":"address"}]},{"type":"error","name":"ERC2612ExpiredSignature","inputs":[{"name":"deadline","type":"uint256","internalType":"uint256"}]},{"type":"error","name":"ERC2612InvalidSigner","inputs":[{"name":"signer","type":"address","internalType":"address"},{"name":"owner","type":"address","internalType":"address"}]},{"type":"error","name":"InvalidAccountNonce","inputs":[{"name":"account","type":"address","internalType":"address"},{"name":"currentNonce","type":"uint256","internalType":"uint256"}]},{"type":"error","name":"InvalidShortString","inputs":[]},{"type":"error","name":"OwnableInvalidOwner","inputs":[{"name":"owner","type":"address","internalType":"address"}]},{"type":"error","name":"OwnableUnauthorizedAccount","inputs":[{"name":"account","type":"address","internalType":"address"}]},{"type":"error","name":"StringTooLong","inputs":[{"name":"str","type":"string","internalType":"string"}]}],"bytecode":{"object":"0x610160604052348015610010575f5ffd5b5060405161168d38038061168d83398101604081905261002f916102b7565b806040518060400160405280600a81526020016923b0ba32b22a37b5b2b760b11b81525080604051806040016040528060018152602001603160f81b815250856040518060400160405280600a81526020016923b0ba32b22a37b5b2b760b11b8152506040518060400160405280600281526020016111d560f21b81525081600390816100bc9190610380565b5060046100c98282610380565b5050506001600160a01b0381166100fa57604051631e4fbdf760e01b81525f60048201526024015b60405180910390fd5b610103816101dc565b5061010f82600661022d565b6101205261011e81600761022d565b61014052815160208084019190912060e052815190820120610100524660a0526101aa60e05161010051604080517f8b73c3c69bb8fe3d512ecc4cf759cc79239f7b179b0ffacaa9a75d522b39400f60208201529081019290925260608201524660808201523060a08201525f9060c00160405160208183030381529060405280519060200120905090565b60805250503060c05250600980546001600160a01b0319166001600160a01b0392909216919091179055506104929050565b600580546001600160a01b038381166001600160a01b0319831681179093556040519116919082907f8be0079c531659141344cd1fd0a4f28419497f9722a3daafe3b4186f6b6457e0905f90a35050565b5f602083511015610248576102418361025f565b9050610259565b816102538482610380565b5060ff90505b92915050565b5f5f829050601f81511115610289578260405163305a27a960e01b81526004016100f1919061043a565b80516102948261046f565b179392505050565b80516001600160a01b03811681146102b2575f5ffd5b919050565b5f5f604083850312156102c8575f5ffd5b6102d18361029c565b91506102df6020840161029c565b90509250929050565b634e487b7160e01b5f52604160045260245ffd5b600181811c9082168061031057607f821691505b60208210810361032e57634e487b7160e01b5f52602260045260245ffd5b50919050565b601f82111561037b57805f5260205f20601f840160051c810160208510156103595750805b601f840160051c820191505b81811015610378575f8155600101610365565b50505b505050565b81516001600160401b03811115610399576103996102e8565b6103ad816103a784546102fc565b84610334565b6020601f8211600181146103df575f83156103c85750848201515b5f19600385901b1c1916600184901b178455610378565b5f84815260208120601f198516915b8281101561040e57878501518255602094850194600190920191016103ee565b508482101561042b57868401515f19600387901b60f8161c191681555b50505050600190811b01905550565b602081525f82518060208401528060208501604085015e5f604082850101526040601f19601f83011684010191505092915050565b8051602080830151919081101561032e575f1960209190910360031b1b16919050565b60805160a05160c05160e0516101005161012051610140516111aa6104e35f395f6108aa01525f61087d01525f61077401525f61074c01525f6106a701525f6106d101525f6106fb01526111aa5ff3fe608060405234801561000f575f5ffd5b5060043610610111575f3560e01c8063715018a61161009e57806395d89b411161006e57806395d89b4114610241578063a9059cbb14610249578063d505accf1461025c578063dd62ed3e1461026f578063f2fde38b146102a7575f5ffd5b8063715018a6146101fa5780637ecebe001461020257806384b0196e146102155780638da5cb5b14610230575f5ffd5b806323b872dd116100e457806323b872dd14610193578063313ce567146101a65780633644e515146101b557806340c10f19146101bd57806370a08231146101d2575f5ffd5b806306fdde0314610115578063095ea7b314610133578063134e18f41461015657806318160ddd14610181575b5f5ffd5b61011d6102ba565b60405161012a9190610f07565b60405180910390f35b610146610141366004610f3b565b61034a565b604051901515815260200161012a565b600954610169906001600160a01b031681565b6040516001600160a01b03909116815260200161012a565b6002545b60405190815260200161012a565b6101466101a1366004610f63565b610363565b6040516012815260200161012a565b610185610386565b6101d06101cb366004610f3b565b610394565b005b6101856101e0366004610f9d565b6001600160a01b03165f9081526020819052604090205490565b6101d06103aa565b610185610210366004610f9d565b6103bd565b61021d6103da565b60405161012a9796959493929190610fb6565b6005546001600160a01b0316610169565b61011d61041c565b610146610257366004610f3b565b61042b565b6101d061026a36600461104c565b610438565b61018561027d3660046110b9565b6001600160a01b039182165f90815260016020908152604080832093909416825291909152205490565b6101d06102b5366004610f9d565b610573565b6060600380546102c9906110ea565b80601f01602080910402602001604051908101604052809291908181526020018280546102f5906110ea565b80156103405780601f1061031757610100808354040283529160200191610340565b820191905f5260205f20905b81548152906001019060200180831161032357829003601f168201915b5050505050905090565b5f336103578185856105b0565b60019150505b92915050565b5f336103708582856105c2565b61037b85858561063e565b506001949350505050565b5f61038f61069b565b905090565b61039c6107c4565b6103a682826107f1565b5050565b6103b26107c4565b6103bb5f610825565b565b6001600160a01b0381165f9081526008602052604081205461035d565b5f6060805f5f5f60606103eb610876565b6103f36108a3565b604080515f80825260208201909252600f60f81b9b939a50919850469750309650945092509050565b6060600480546102c9906110ea565b5f3361035781858561063e565b834211156104615760405163313c898160e11b8152600481018590526024015b60405180910390fd5b5f7f6e71edae12b1b97f4d1f60370fef10105fa2faae0126114a169c64845d6126c98888886104ac8c6001600160a01b03165f90815260086020526040902080546001810190915590565b6040805160208101969096526001600160a01b0394851690860152929091166060840152608083015260a082015260c0810186905260e0016040516020818303038152906040528051906020012090505f610506826108d0565b90505f610515828787876108fc565b9050896001600160a01b0316816001600160a01b03161461055c576040516325c0072360e11b81526001600160a01b0380831660048301528b166024820152604401610458565b6105678a8a8a6105b0565b50505050505050505050565b61057b6107c4565b6001600160a01b0381166105a457604051631e4fbdf760e01b81525f6004820152602401610458565b6105ad81610825565b50565b6105bd8383836001610928565b505050565b6001600160a01b038381165f908152600160209081526040808320938616835292905220545f19811015610638578181101561062a57604051637dc7a0d960e11b81526001600160a01b03841660048201526024810182905260448101839052606401610458565b61063884848484035f610928565b50505050565b6001600160a01b03831661066757604051634b637e8f60e11b81525f6004820152602401610458565b6001600160a01b0382166106905760405163ec442f0560e01b81525f6004820152602401610458565b6105bd8383836109fa565b5f306001600160a01b037f0000000000000000000000000000000000000000000000000000000000000000161480156106f357507f000000000000000000000000000000000000000000000000000000000000000046145b1561071d57507f000000000000000000000000000000000000000000000000000000000000000090565b61038f604080517f8b73c3c69bb8fe3d512ecc4cf759cc79239f7b179b0ffacaa9a75d522b39400f60208201527f0000000000000000000000000000000000000000000000000000000000000000918101919091527f000000000000000000000000000000000000000000000000000000000000000060608201524660808201523060a08201525f9060c00160405160208183030381529060405280519060200120905090565b6005546001600160a01b031633146103bb5760405163118cdaa760e01b8152336004820152602401610458565b6001600160a01b03821661081a5760405163ec442f0560e01b81525f6004820152602401610458565b6103a65f83836109fa565b600580546001600160a01b038381166001600160a01b0319831681179093556040519116919082907f8be0079c531659141344cd1fd0a4f28419497f9722a3daafe3b4186f6b6457e0905f90a35050565b606061038f7f00000000000000000000000000000000000000000000000000000000000000006006610a05565b606061038f7f00000000000000000000000000000000000000000000000000000000000000006007610a05565b5f61035d6108dc61069b565b8360405161190160f01b8152600281019290925260228201526042902090565b5f5f5f5f61090c88888888610aae565b92509250925061091c8282610b76565b50909695505050505050565b6001600160a01b0384166109515760405163e602df0560e01b81525f6004820152602401610458565b6001600160a01b03831661097a57604051634a1406b160e11b81525f6004820152602401610458565b6001600160a01b038085165f908152600160209081526040808320938716835292905220829055801561063857826001600160a01b0316846001600160a01b03167f8c5be1e5ebec7d5bd14f71427d1e84f3dd0314c0f7b2291e5b200ac8c7c3b925846040516109ec91815260200190565b60405180910390a350505050565b6105bd838383610c2e565b606060ff8314610a1f57610a1883610ce3565b905061035d565b818054610a2b906110ea565b80601f0160208091040260200160405190810160405280929190818152602001828054610a57906110ea565b8015610aa25780601f10610a7957610100808354040283529160200191610aa2565b820191905f5260205f20905b815481529060010190602001808311610a8557829003601f168201915b5050505050905061035d565b5f80807f7fffffffffffffffffffffffffffffff5d576e7357a4501ddfe92f46681b20a0841115610ae757505f91506003905082610b6c565b604080515f808252602082018084528a905260ff891692820192909252606081018790526080810186905260019060a0016020604051602081039080840390855afa158015610b38573d5f5f3e3d5ffd5b5050604051601f1901519150506001600160a01b038116610b6357505f925060019150829050610b6c565b92505f91508190505b9450945094915050565b5f826003811115610b8957610b89611122565b03610b92575050565b6001826003811115610ba657610ba6611122565b03610bc45760405163f645eedf60e01b815260040160405180910390fd5b6002826003811115610bd857610bd8611122565b03610bf95760405163fce698f760e01b815260048101829052602401610458565b6003826003811115610c0d57610c0d611122565b036103a6576040516335e2f38360e21b815260048101829052602401610458565b610c3783610d20565b610c835760405162461bcd60e51b815260206004820152601c60248201527f46726f6d20616464726573732063616e6e6f7420696e746572616374000000006044820152606401610458565b610c8c82610d20565b610cd85760405162461bcd60e51b815260206004820152601a60248201527f546f20616464726573732063616e6e6f7420696e7465726163740000000000006044820152606401610458565b6105bd838383610d8c565b60605f610cef83610eb2565b6040805160208082528183019092529192505f91906020820181803683375050509182525060208101929092525090565b60095460405163fe436c5360e01b81526001600160a01b0383811660048301525f92169063fe436c5390602401602060405180830381865afa158015610d68573d5f5f3e3d5ffd5b505050506040513d601f19601f8201168201806040525081019061035d9190611136565b6001600160a01b038316610db6578060025f828254610dab9190611155565b90915550610e269050565b6001600160a01b0383165f9081526020819052604090205481811015610e085760405163391434e360e21b81526001600160a01b03851660048201526024810182905260448101839052606401610458565b6001600160a01b0384165f9081526020819052604090209082900390555b6001600160a01b038216610e4257600280548290039055610e60565b6001600160a01b0382165f9081526020819052604090208054820190555b816001600160a01b0316836001600160a01b03167fddf252ad1be2c89b69c2b068fc378daa952ba7f163c4a11628f55a4df523b3ef83604051610ea591815260200190565b60405180910390a3505050565b5f60ff8216601f81111561035d57604051632cd44ac360e21b815260040160405180910390fd5b5f81518084528060208401602086015e5f602082860101526020601f19601f83011685010191505092915050565b602081525f610f196020830184610ed9565b9392505050565b80356001600160a01b0381168114610f36575f5ffd5b919050565b5f5f60408385031215610f4c575f5ffd5b610f5583610f20565b946020939093013593505050565b5f5f5f60608486031215610f75575f5ffd5b610f7e84610f20565b9250610f8c60208501610f20565b929592945050506040919091013590565b5f60208284031215610fad575f5ffd5b610f1982610f20565b60ff60f81b8816815260e060208201525f610fd460e0830189610ed9565b8281036040840152610fe68189610ed9565b606084018890526001600160a01b038716608085015260a0840186905283810360c0850152845180825260208087019350909101905f5b8181101561103b57835183526020938401939092019160010161101d565b50909b9a5050505050505050505050565b5f5f5f5f5f5f5f60e0888a031215611062575f5ffd5b61106b88610f20565b965061107960208901610f20565b95506040880135945060608801359350608088013560ff8116811461109c575f5ffd5b9699959850939692959460a0840135945060c09093013592915050565b5f5f604083850312156110ca575f5ffd5b6110d383610f20565b91506110e160208401610f20565b90509250929050565b600181811c908216806110fe57607f821691505b60208210810361111c57634e487b7160e01b5f52602260045260245ffd5b50919050565b634e487b7160e01b5f52602160045260245ffd5b5f60208284031215611146575f5ffd5b81518015158114610f19575f5ffd5b8082018082111561035d57634e487b7160e01b5f52601160045260245ffdfea2646970667358221220f7d8057ce4c7761e4bffe99549ed73f2a7a9bf5925e09c051d702113ea6c5b3264736f6c634300081c0033","linkReferences":{}},"methodIdentifiers":{"DOMAIN_SEPARATOR()":"3644e515","allowance(address,address)":"dd62ed3e","approve(address,uint256)":"095ea7b3","balanceOf(address)":"70a08231","decimals()":"313ce567","eip712Domain()":"84b0196e","identityRegistry()":"134e18f4","mint(address,uint256)":"40c10f19","name()":"06fdde03","nonces(address)":"7ecebe00","owner()":"8da5cb5b","permit(address,address,uint256,uint256,uint8,bytes32,bytes32)":"d505accf","renounceOwnership()":"715018a6","symbol()":"95d89b41","totalSupply()":"18160ddd","transfer(address,uint256)":"a9059cbb","transferFrom(address,address,uint256)":"23b872dd","transferOwnership(address)":"f2fde38b"},"id":38}