{"abi":[{"type":"constructor","inputs":[{"name":"_publicInputs","type":"bytes32[]","internalType":"bytes32[]"}],"stateMutability":"nonpayable"},{"type":"function","name":"canInteract","inputs":[{"name":"identity","type":"address","internalType":"address"}],"outputs":[{"name":"","type":"bool","internalType":"bool"}],"stateMutability":"view"},{"type":"function","name":"identities","inputs":[{"name":"","type":"address","internalType":"address"}],"outputs":[{"name":"expiration","type":"uint256","internalType":"uint256"}],"stateMutability":"view"},{"type":"function","name":"publicInputs","inputs":[{"name":"","type":"uint256","internalType":"uint256"}],"outputs":[{"name":"","type":"bytes32","internalType":"bytes32"}],"stateMutability":"view"},{"type":"function","name":"registerIdentity","inputs":[{"name":"proof","type":"bytes","internalType":"bytes"}],"outputs":[],"stateMutability":"nonpayable"},{"type":"function","name":"verifier","inputs":[],"outputs":[{"name":"","type":"address","internalType":"contract HonkVerifier"}],"stateMutability":"view"}],"bytecode":{"object":"0x608060405234801561000f575f5ffd5b50604051615a64380380615a6483398101604081905261002e9161010b565b60405161003a9061008d565b604051809103905ff080158015610053573d5f5f3e3d5ffd5b505f80546001600160a01b0319166001600160a01b0392909216919091179055805161008690600190602084019061009a565b50506101d2565b6154a9806105bb83390190565b828054828255905f5260205f209081019282156100d3579160200282015b828111156100d35782518255916020019190600101906100b8565b506100df9291506100e3565b5090565b5b808211156100df575f81556001016100e4565b634e487b7160e01b5f52604160045260245ffd5b5f6020828403121561011b575f5ffd5b81516001600160401b03811115610130575f5ffd5b8201601f81018413610140575f5ffd5b80516001600160401b03811115610159576101596100f7565b604051600582901b90603f8201601f191681016001600160401b0381118282101715610187576101876100f7565b6040529182526020818401810192908101878411156101a4575f5ffd5b6020850194505b838510156101c7578451808252602095860195909350016101ab565b509695505050505050565b6103dc806101df5f395ff3fe608060405234801561000f575f5ffd5b5060043610610055575f3560e01c80632b7ac3f314610059578063673bec8a146100885780636ae659ee1461009d578063f653b81e146100be578063fe436c53146100dd575b5f5ffd5b5f5461006b906001600160a01b031681565b6040516001600160a01b0390911681526020015b60405180910390f35b61009b610096366004610235565b610100565b005b6100b06100ab3660046102a3565b6101e8565b60405190815260200161007f565b6100b06100cc3660046102ba565b60026020525f908152604090205481565b6100f06100eb3660046102ba565b610207565b604051901515815260200161007f565b5f54604051633a94343960e21b81526001600160a01b039091169063ea50d0e49061013490859085906001906004016102e7565b602060405180830381865afa15801561014f573d5f5f3e3d5ffd5b505050506040513d601f19601f820116820180604052508101906101739190610362565b6101b65760405162461bcd60e51b815260206004820152601060248201526f141c9bdbd9881a5cc81a5b9d985b1a5960821b604482015260640160405180910390fd5b604051806020016040528042620151806101d09190610381565b9052335f908152600260205260409020905190555050565b600181815481106101f7575f80fd5b5f91825260209091200154905081565b6001600160a01b0381165f9081526002602052604081205442101561022e57506001919050565b505f919050565b5f5f60208385031215610246575f5ffd5b823567ffffffffffffffff81111561025c575f5ffd5b8301601f8101851361026c575f5ffd5b803567ffffffffffffffff811115610282575f5ffd5b856020828401011115610293575f5ffd5b6020919091019590945092505050565b5f602082840312156102b3575f5ffd5b5035919050565b5f602082840312156102ca575f5ffd5b81356001600160a01b03811681146102e0575f5ffd5b9392505050565b60408152826040820152828460608301375f606084830101525f601f19601f8501168201606081016060848303016020850152808554808352608084019150865f5260205f2093505f92505b808310156103565783548252602082019150600184019350600183019250610333565b50979650505050505050565b5f60208284031215610372575f5ffd5b815180151581146102e0575f5ffd5b808201808211156103a057634e487b7160e01b5f52601160045260245ffd5b9291505056fea2646970667358221220fa1e5ff0a1ac6fe5c24ca8d2f53764cc4a2c585c633c359c0460cdd1bad0a3c264736f6c634300081c003360e0604052348015600e575f5ffd5b50610100608052600860a052601160c05260805160a05160c0516154526100575f395f61057101525f818161061d01528181610bf60152610c9201525f61051a01526154525ff3fe608060405234801561000f575f5ffd5b5060043610610029575f3560e01c8063ea50d0e41461002d575b5f5ffd5b61004061003b36600461505b565b610054565b604051901515815260200160405180910390f35b5f6100626101b86020615137565b8414610081576040516376ba560560e11b815260040160405180910390fd5b5f61008a610198565b90505f61009787876101ad565b604083015190915084146100be5760405163fa06659360e01b815260040160405180910390fd5b5f6100d5828787865f015187604001516001610455565b90506101238686808060200260200160405190810160405280939291908181526020018383602002808284375f92019190915250508451606081015160809091015190925090506001610504565b815160a001525f6101348383610615565b905080610154576040516313f8744360e31b815260040160405180910390fd5b5f610160848685610716565b905080610180576040516352ec174560e11b815260040160405180910390fd5b81801561018a5750805b9a9950505050505050505050565b6101a061483f565b6101a8610f8a565b905090565b6101b5614bbd565b6101ca6101c560805f858761514e565b611871565b81526101de6101c56101006080858761514e565b60208201526101f66101c5610180610100858761514e565b604082015261020e6101c5610200610180858761514e565b60a08201526102266101c5610280610200858761514e565b60c082015261023e6101c5610300610280858761514e565b60608201526102566101c5610380610300858761514e565b60e082015261026e6101c5610400610380858761514e565b60808201526104005f5b601c811015610305575f5b60088110156102fc576102af86848761029d826020615175565b926102aa9392919061514e565b611965565b84610100015183601c81106102c6576102c6615188565b602002015182600881106102dc576102dc615188565b6020020181815250506020836102f29190615175565b9250600101610283565b50600101610278565b505f5b60288110156103595761032285838661029d826020615175565b836101200151826028811061033957610339615188565b60200201818152505060208261034f9190615175565b9150600101610308565b505f5b6103686001601c61519c565b8110156103be5761038d858386610380826080615175565b926101c59392919061514e565b83610140015182601b81106103a4576103a4615188565b60200201526103b4608083615175565b915060010161035c565b505f5b601c811015610412576103db85838661029d826020615175565b83610160015182601c81106103f2576103f2615188565b6020020181815250506020826104089190615175565b91506001016103c1565b50610424848285610380826080615175565b610180830152610435816080615175565b9050610448848285610380826080615175565b6101a08301525092915050565b61045d614db0565b5f61046d888888888888876119c1565b908352905061047c8189611a42565b6020840191909152905061048f81611bdd565b604084019190915290506104a38882611c3e565b606084019190915290506104b78882611d12565b608084019190915290506104cb8882611d9d565b60a084019190915290506104df8882611f0b565b60c084019190915290506104f38882611f7d565b5060e0830152509695505050505050565b5f6001808261054d866105488961054361053e8a7f0000000000000000000000000000000000000000000000000000000000000000615175565b611fd4565b611ff2565b61200b565b90505f61056b876105668a61054361053e8b6001615175565b612024565b90505f5b7f00000000000000000000000000000000000000000000000000000000000000008110156105fd575f6105ba8b83815181106105ad576105ad615188565b6020026020010151611fd4565b90506105ca86610543868461200b565b95506105da85610543858461200b565b94506105e6848b61200b565b93506105f2838b612024565b92505060010161056f565b506106088484612053565b9998505050505050505050565b5f806001815b7f00000000000000000000000000000000000000000000000000000000000000008110156106ec575f86610100015182601c811061065b5761065b615188565b602002015190505f61066d8286612061565b90508061068d576040516313f8744360e31b815260040160405180910390fd5b5f876060015184601c81106106a4576106a4615188565b602002015190506106b5838261207e565b95506106dc886040015185601c81106106d0576106d0615188565b6020020151868361222d565b945050505080600101905061061b565b505f610706866101200151865f0151876020015185612258565b90508281145b9695505050505050565b5f61075d6040518061012001604052805f81526020015f81526020015f81526020015f81526020015f81526020015f81526020015f81526020015f81526020015f81525090565b5f61076b8460a001516122c6565b9050610775614e34565b61077d614e53565b60e086015161079c9061079790855f5b6020020151612024565b61232b565b60a085015260e08601516107bb9061079790855f5b602002015161200b565b60c080860182905260a0860151908801516107da926105489190611ff2565b845260a0860151610808906107ee9061232b565b6105438660a001516105668a60c001518960c00151611ff2565b60208501526001825261018088015161082090612394565b81526001606085018190525f60808601525b602381116108d857610853610849865f01516123de565b8660600151611ff2565b83826046811061086557610865615188565b602002015260808501516101208a01516108a891906105489061088960018661519c565b6028811061089957610899615188565b60200201518860600151611ff2565b8560800181815250506108c385606001518860800151611ff2565b60608601526108d1816151af565b9050610832565b505f6108e660236001615175565b90505b602881116109675761090161084986602001516123de565b83826046811061091357610913615188565b602002015260808501516101208a015161093791906105489061088960018661519c565b85608001818152505061095285606001518860800151611ff2565b6060860152610960816151af565b90506108e9565b50606087015181600160200201526080870151816002602002015260a0870151816003602002015260c0870151816004602002015260e0870151816005602002015261010087015181600660200201526101208701518160076020020152610140870151816008602002015261016087015181600960200201526101a087015181600a602002015261018087015181600b60200201526101c087015181600c60200201526101e087015181600d602002015261020087015181600e602002015261022087015181600f60200201526102408701518160106020020152610260870151816011602002015261028087015181601260200201526102a087015181601360200201526102c087015181601460200201526102e08701518160156020020152610300870151816016602002015261032087015181601760200201526103408701518160186020020152610360870151816019602002015261038087015181601a60200201526103a087015181601b60200201528751610ae890612394565b6103808201526020880151610afc90612394565b6103a08201526040880151610b1090612394565b6103c08201526060880151610b2490612394565b6103e08201526080880151610b3890612394565b61040082015260e0880151610b4c90612394565b61042082015260a0880151610b6090612394565b61044082015260c0880151610b7490612394565b6104608201528751610b8590612394565b6104808201526020880151610b9990612394565b6104a08201526040880151610bad90612394565b6104c08201526060880151610bc190612394565b6104e08201526080880151610bd590612394565b610500820152606086015160808501516101608a01515f92610c1a929091877f00000000000000000000000000000000000000000000000000000000000000006123f6565b805160a0870151919250610c2d91611ff2565b604086018190526101608a01515160c0890151610c5d929161054891610c539190611ff2565b8860c00151611ff2565b604086015260c0870151610c7090612511565b60608601525f5b610c836001601c61519c565b811015610e85575f610cb660017f000000000000000000000000000000000000000000000000000000000000000061519c565b821015905080610e2b57610ce96107978a60e0015188856001610cd99190615175565b601c811061078d5761078d615188565b60a088015260e0890151610d17906107979088610d07866001615175565b601c81106107b1576107b1615188565b60c0880152606087015160a0880151610d309190611ff2565b60e0880152606087015160c08a0151610d4c91610c5391611ff2565b6101008801819052610d6e90610d61906123de565b6105488960e001516123de565b8583610d7c60286001615175565b610d869190615175565b60468110610d9657610d96615188565b60200201526101008701516101608c01515f91610dd291610db8866001615175565b601c8110610dc857610dc8615188565b6020020151611ff2565b9050610dee816105488a60e0015187876001610db89190615175565b9050610dfe88604001518261200b565b6040890152606088015160c08b0151610e2491610e1a91611ff2565b8b60c00151611ff2565b6060890152505b610e4f8b610140015183601b8110610e4557610e45615188565b6020020151612394565b8483610e5d60286001615175565b610e679190615175565b60468110610e7757610e77615188565b602002015250600101610c77565b5060408051808201909152600181526002602082015282610ea8601c6028615175565b60468110610eb857610eb8615188565b6020020152604085015183610ecf601c6028615175565b60468110610edf57610edf615188565b60200201526101a08901515f90610ef590612394565b90508083610f05601c6028615175565b610f10906001615175565b60468110610f2057610f20615188565b602002015260e088015184610f37601c6028615175565b610f42906001615175565b60468110610f5257610f52615188565b60200201525f610f62848661251c565b90505f610f6e836125ed565b9050610f7a8282612664565b9c9b505050505050505050505050565b610f9261483f565b50604080516103c0810182526101008082526008602080840191909152601183850152835180850185527f118ea351a4def52f0259a290459a9933b7d5f121d275f43dfeb8038262fbe10081527f168c39a4df58f19f6084be510da6a61bbab87353b8dc010edcef215a5c8da17b818301526060840152835180850185527f0fa073cd03a633b3dfc61f597b55547999d40c6acd3b575a31489f683aa911c981527f1796410445657d882a206e8249081f8e0f20cd89c6082fe6c34f9a1fa695159e818301526080840152835180850185527f05e9e444cbdec65bdd0b7aacc1053198cad790666c04f7cff62a6dfa9b4311e781527f0b06b5b28b2af9fabb68c51e44d694abfa5fd46825139fef170bbff35fec46b98183015260a0840152835180850185527f24c2b981a4b4188ee740aa9c5f2f77350c381e7e4231e7bc2435e507851416ea81527f0b2a5d9bdea21f0cbb247cf87e7aef161215ebd45d7ee13e42fab8eed4b5df0e8183015260c0840152835180850185527f2d476694a65d9d9f6e95fe84cd83feab6760533502cebfa7b8e9f256e2444d7e81527f2b70df708d7cf31dc0549a921a5c79e39fa0d1d4f1f8b2f757585868ccc04b658183015260e0840152835180850185527f2dc567c4b165744b833b7350943574145ba1229e197119e26119f597f70ec4c181527f0ade3e33f0e59ecdec04d9122b259d3e8fa404eb38dfe16b1fbbad72b18988398183015291830191909152825180840184527f0c4032c3079594eb75a8449d3d5ce8bc3661650d53f9b24d923d8f404cb0bbc981527f1084d709650356d40f0158fd6da81f54eb5fe796a0ca89441369b7c24301f85181830152610120830152825180840184527f1022ec63a4582644ec0ebd6001a700ef9b3a88cc823c8f77c461376369b0630081527f0d121c1918fcbbaac278c90277ccd18438b006de2dd2af1e76378a38b131e7ec81830152610140830152825180840184527f2d411221d9ee124f73395a4a3b2be7e73cb6dd74cf8c9ef37a441c218b6101ed81527f28c70843c165457950764717d08700f5b686d5774255ef722a3b3412e2f1570b81830152610160830152825180840184527f0fc68903e300615e07dae597fc51053b1560bd90161b1d2ccb97d8bac9146c6081527f25856d0468fa0acc6ebd4696137767e49a6c98a6cf46d36b938f9e999782720781830152610180830152825180840184527f27ec20fcd78105a18b2ce97cece6dc1cacbb9ebdd532080e84942abf41ed2ce481527f224f85efb5a5901c491a1cfee571f485f8016907bda69646857ab9fcc2c6afc3818301526101a0830152825180840184527f28401c7bca5450402b253cf0531ab40f136f16a5c9fa27f0a3999a505889485b81527f185640386ba2f5d6e323f271464e43672702ad81dbd62a5ced0f66a5eee286c6818301526101c0830152825180840184527f1732a41f66249f8a0e6da435ccf638a2b89dd038c41352af2ef1b2c952af731a81527f1dcac047a830a33b834e99ade8f74c25ce089d638d35abf7117cea8154df42dc818301526101e0830152825180840184527f24f29277a636dcd0bd0083ed20f85c3376332e1df64b45c2a6b6147623fdef8381527f23a9b43b27fa52bcc8463cb6c692ebe2be8926e956581ed2709387a28509b09e81830152610200830152825180840184527f0f6159b85a450216a223e08ef208ef1550ebfe110ffaf90eedd950208acf9db581527f1d1829edde84d9707af9009f9f16160f9f3f819a6db6d25f54b936d6c94a83c681830152610220830152825180840184527f2cf5d2ac4cbba239e98c0493c3ab3fc35e06e52e33ab2af9bbcea20c0b3343f181527f05d7e201d9bf2ecda00ce7e2a495425e0de86b8618be9dad190b28260aa1227981830152610240830152825180840184527f2d0a40eaa5c22fe6a793e35a47927cae4d8cab59ade6ca3e72932e96649d677981527f2542bd8a98b72ea8ec5c00d099e911589351feab7e90c138803e93a4ac33135d81830152610260830152825180840184527f0b59b7a9b0cc38a2e4e836dee5dded56732ef7fb1143eb503a06587c597b261781527f0f62bd0cf3042cda301a37b41460b4ae59c9faf5ff7ae14ab5ff60115a2b2fda81830152610280830152825180840184527f0363c75ac1becf6b299ec4013368358575ad423244e598884986aa227770265a81527f1fd64566c9af29ff0067a08bbd76152e0d77c84328dbeac39e218e8090490d57818301526102a0830152825180840184527f2e7afbc99a00f091250814eb1a0e49fbd896157393e7124538bcf697692b781681527f19544bbfd065725f69e2a3fd2a8c84bb0167adef7c22922df9423ea66ea6d4b4818301526102c0830152825180840184527f24ba1c265f54672e046501e6439d2293eb56b5c88fa7f5bf91edad99df062b6d81527f139b144cc9e06dadb6925e184fe05e80d624f831e675c430c711570aec56ed92818301526102e0830152825180840184527f0450f8716810dff987300c3bc10a892b1c1c2637db3f8fecd9d8bb38442cc46881527f10005567f9eb3d3a97098baa0d71c65db2bf83f8a194086a4cca39916b578faf81830152610300830152825180840184527f103bcf2cf468d53c71d57b5c0ab31231e12e1ce3a444583203ea04c16ec69eb281527f0c5d6e7a8b0b14d4ed8f51217ae8af4207277f4116e0af5a9268b38a5d34910b81830152610320830152825180840184527f187b9371870f579be414054241d418f5689db2f6cbfabe968378fd68e9b280c081527f0964ab30f99cb72cc59d0f621604926cfebfcff535f724f619bb0e7a4853dbdb81830152610340830152825180840184527f132b76a71278e567595f3aaf837a72eb0ab515191143e5a3c8bd58752648662881527f2c6b2a0de0a3fefdfc4fb4f3b8381d2c37ccc495848c2887f98bfbaca776ca3981830152610360830152825180840184526001815260028183015261038083015282518084019093527f0a5f342455421b52a7bd378498586d411acd1b1900abe4e27aade9a789da753883527f222726310f9f79194e432ccebaaadb90f7645a6b57ba718d981797777696acf0908301526103a081019190915290565b61189860405180608001604052805f81526020015f81526020015f81526020015f81525090565b608082146118e35760405162461bcd60e51b81526020600482015260136024820152721a5b9d985b1a5908189e5d195cc81c1bda5b9d606a1b60448201526064015b60405180910390fd5b6040805160808101909152806118fc60205f868861514e565b611905916151c7565b815260209081019061191b90604090868861514e565b611924916151c7565b815260200161193760606040868861514e565b611940916151c7565b815260200161195360806060868861514e565b61195c916151c7565b90529392505050565b5f602082146119ad5760405162461bcd60e51b815260206004820152601460248201527334b73b30b634b210313cba32b99039b1b0b630b960611b60448201526064016118da565b6119ba61053e83856151c7565b9392505050565b6119f46040518060c001604052805f81526020015f81526020015f81526020015f81526020015f81526020015f81525090565b5f611a03898989898989612868565b604086019190915260208501919091529083529250611a22838a612c8b565b608085019190915260608401919091529199919850909650505050505050565b611a4a614e8c565b5f611a53614eab565b84815260e0848101805151602080850191909152815181015160408086019190915282518101516060808701919091529251830151608080870191909152880180515160a0870152805183015160c08701528051820151948601949094529251909101516101008401529051611aea91611acf918491016151e4565b60405160208183030381529060405280519060200120611fd4565b9150611af582612d56565b6020850152835260015b611b0b6002601961522c565b811015611b8b57611b2883604051602001611acf91815260200190565b9250611b3383612d56565b85611b3f846002615137565b60198110611b4f57611b4f615188565b6020020186611b5f856002615137565b611b6a906001615175565b60198110611b7a57611b7a615188565b602002019190915252600101611aff565b50611ba282604051602001611acf91815260200190565b91505f611bae83612d56565b85611bbb6001601961519c565b60198110611bcb57611bcb615188565b60200201919091525050509250929050565b611be5614eca565b5f805b601c811015611c3757611c0784604051602001611acf91815260200190565b93505f611c1385612d56565b8584601c8110611c2557611c25615188565b60200201919091525050600101611be8565b5090929050565b611c46614eca565b5f805b601c811015611d0957611c5a614eab565b8481525f5b6008811015611cc35786610100015183601c8110611c7f57611c7f615188565b60200201518160088110611c9557611c95615188565b602002015182611ca6836001615175565b60098110611cb657611cb6615188565b6020020152600101611c5f565b50611cd881604051602001611acf91906151e4565b94505f611ce486612d56565b8685601c8110611cf657611cf6615188565b6020020191909152505050600101611c49565b50909391925050565b5f5f611d1c614ee9565b8381525f5b6028811015611d6f578561012001518160288110611d4157611d41615188565b602002015182611d52836001615175565b60298110611d6257611d62615188565b6020020152600101611d21565b50611d8481604051602001611acf919061523f565b91505f611d9083612d56565b5096929550919350505050565b5f5f611da7614f08565b8381525f5b611db86001601c61519c565b811015611ef65785610140015181601b8110611dd657611dd6615188565b60200201515182611de8836004615137565b611df3906001615175565b606d8110611e0357611e03615188565b602002015261014086015181601b8110611e1f57611e1f615188565b60200201516020015182826004611e369190615137565b611e41906002615175565b606d8110611e5157611e51615188565b602002015261014086015181601b8110611e6d57611e6d615188565b60200201516040015182611e82836004615137565b611e8d906003615175565b606d8110611e9d57611e9d615188565b602002015261014086015181601b8110611eb957611eb9615188565b60200201516060015182611ece836004615137565b611ed9906004615175565b606d8110611ee957611ee9615188565b6020020152600101611dac565b50611d8481604051602001611acf9190615273565b5f5f611f15614f27565b8381525f5b601c811015611f685785610160015181601c8110611f3a57611f3a615188565b602002015182611f4b836001615175565b601d8110611f5b57611f5b615188565b6020020152600101611f1a565b50611d8481604051602001611acf91906152a7565b5f5f611f87614f46565b83815261018085018051516020808401919091528151810151604080850191909152825181015160608086019190915292519092015160808401529051611d8491611acf918491016152db565b5f611fec5f5160206153fd5f395f51905f528361530e565b92915050565b5f5f5160206153fd5f395f51905f528284099392505050565b5f5f5160206153fd5f395f51905f528284089392505050565b5f5f5160206153fd5f395f51905f5261204a835f5160206153fd5f395f51905f5261519c565b84089392505050565b5f6119ba836105438461232b565b81515f908190612073908560016107b1565b929092149392505050565b60408051610100810182527f30644e72e131a029b85045b68181585d2833e84879b9709143e1f593efffec5181526102d060208201527f30644e72e131a029b85045b68181585d2833e84879b9709143e1f593efffff1191810191909152609060608201527f30644e72e131a029b85045b68181585d2833e84879b9709143e1f593efffff71608082015260f060a08201527f30644e72e131a029b85045b68181585d2833e84879b9709143e1f593effffd3160c08201526113b060e08201525f906001825b60088110156121655761215b826105438784612024565b9150600101612144565b5061216e614f64565b5f5b60088110156121cf575f84826008811061218c5761218c615188565b602002015190506121a1816105438985612024565b90506121ac8161232b565b9050808383600881106121c1576121c1615188565b602002015250600101612170565b505f5b6008811015612222575f8782600881106121ee576121ee615188565b6020020151905061220b81848460088110610dc857610dc8615188565b9050612217868261200b565b9550506001016121d2565b5061070c8483611ff2565b5f5f612243600161054885610543896001612024565b905061224f8482611ff2565b95945050505050565b5f612261614f83565b61226c868285612d8f565b61227886868386612f3b565b61228486868386613123565b61228f86828561331f565b61229a868285613507565b6122a686868386613850565b6122b18682856140ea565b6122bc8682856144b5565b61070c81856147aa565b6122ce614eca565b81815260015b601c81101561232557612306826122ec60018461519c565b601c81106122fc576122fc615188565b6020020151612511565b8282601c811061231857612318615188565b60200201526001016122d4565b50919050565b5f5f8290505f604051602081526020808201526020604082015282606082015260025f5160206153fd5f395f51905f520360808201525f5160206153fd5f395f51905f5260a082015260205f60c08360055afa905080612389575f5ffd5b50505f519392505050565b604080518082019091525f8082526020820152604051806040016040528060888460200151901b845f015117815260200160888460600151901b8460400151178152509050919050565b5f611fec825f5160206153fd5f395f51905f5261519c565b6123fe614eca565b601c5b8015612507575f8461241460018461519c565b601c811061242457612424615188565b602002015190505f8861243860018561519c565b601c811061244857612448615188565b602002015190505f6124a3612467612460858c611ff2565b6002611ff2565b6105668a61247660018961519c565b601c811061248657612486615188565b602002015161054361249d8861054360018a612024565b87612024565b90506124c4816105436107976124be87610543600189612024565b8661200b565b90508584116124f35797508780856124dd60018761519c565b601c81106124ed576124ed615188565b60200201525b5050508061250090615321565b9050612401565b5095945050505050565b5f611fec8283611ff2565b604080518082019091525f80825260208201525f61253c601c6028615175565b612547906002615175565b90506001604051855151604082015285516020015160608201528451608082015260408160606040840160075afa8216915060015b838110156125d55760208102870160208202870181515160408501528151602001516060850152805160808501525050604080830160606040850160075afa8316925060408260808460065afa9092169160010161257c565b50805184526020810151602085015250505092915050565b604080518082019091525f80825260208201527f30644e72e131a029b85045b68181585d97816a916871ca8d3c208c16d87cfd4782602001517f30644e72e131a029b85045b68181585d97816a916871ca8d3c208c16d87cfd47612651919061519c565b61265b919061530e565b60208301525090565b81516020808401518351848301516040805194850195909552938301919091527f198e9393920d483a7260bfb731fb5d25f1aa493335a9e71297e485b7aef312c260608301527f1800deef121f1e76426a00665e5c4479674322d4f75edadd46debd5cd992f6ed60808301527f090689d0585ff075ec9e99ad690c3395bc4b313370b38ef355acdadcd122975b60a08301527f12c85ea5db8c6deb4aab71808dcb408fe3d1e7690c43d37b4ce6cc0166fa7daa60c083015260e08201526101008101919091527f260e01b251f6f1c7e7ff4e580791dee8ea51d87a358e038b4efe30fac09383c16101208201527f0118c4d5b837bcc2bc89b5b398b5974e9f5944073b32078b7e231fec938883b06101408201527f04fc6369f7110fe3d25156c1bb9a72859cf2a04641f99ba4ee413c80da6a5fe46101608201527f22febda3c0c0632a56475b4214e5615e11e6dd3f96e6cea2854a87d4dacc5e556101808201525f9081906101a00160405160208183030381529060405290505f5f60086001600160a01b0316836040516127fa9190615336565b5f60405180830381855afa9150503d805f8114612832576040519150601f19603f3d011682016040523d82523d5f602084013e612837565b606091505b50915091505f81806020019051810190612851919061534c565b905082801561285d5750805b979650505050505050565b5f80808080612878876003615175565b61288390600c615175565b67ffffffffffffffff81111561289b5761289b61536b565b6040519080825280602002602001820160405280156128c4578160200160208202803683370190505b509050875f1b815f815181106128dc576128dc615188565b602002602001018181525050865f1b816001815181106128fe576128fe615188565b602002602001018181525050855f1b8160028151811061292057612920615188565b60209081029190910101525f5b8781101561297f578a8a8281811061294757612947615188565b905060200201358282600361295c9190615175565b8151811061296c5761296c615188565b602090810291909101015260010161292d565b508a51518161298f896003615175565b8151811061299f5761299f615188565b6020908102919091018101919091528b510151816129be896003615175565b6129c9906001615175565b815181106129d9576129d9615188565b60209081029190910101528a5160400151816129f6896003615175565b612a01906002615175565b81518110612a1157612a11615188565b60209081029190910101528a516060015181612a2e896003615175565b612a39906003615175565b81518110612a4957612a49615188565b6020908102919091018101919091528b01515181612a68896003615175565b612a73906004615175565b81518110612a8357612a83615188565b6020908102919091018101919091528b810151015181612aa4896003615175565b612aaf906005615175565b81518110612abf57612abf615188565b6020908102919091018101919091528b01516040015181612ae1896003615175565b612aec906006615175565b81518110612afc57612afc615188565b6020908102919091018101919091528b01516060015181612b1e896003615175565b612b29906007615175565b81518110612b3957612b39615188565b602090810291909101015260408b01515181612b56896003615175565b612b61906008615175565b81518110612b7157612b71615188565b60209081029190910181019190915260408c0151015181612b93896003615175565b612b9e906009615175565b81518110612bae57612bae615188565b60209081029190910101526040808c0151015181612bcd896003615175565b612bd890600a615175565b81518110612be857612be8615188565b602090810291909101015260408b01516060015181612c08896003615175565b612c1390600b615175565b81518110612c2357612c23615188565b602002602001018181525050612c4381604051602001611acf919061537f565b9150612c4e82612d56565b6040805160208101869052929750909550612c699101611acf565b91505f612c7583612d56565b50959c949b509499509097509195505050505050565b5f5f5f612c96614fa2565b85815260a0858101805151602080850191909152815181015160408086019190915282518101516060808701919091529251830151608086015260c0808a0180515195870195909552845183015190860152835181015160e086015292518201516101008501528188018051516101208601528051820151610140860152805184015161016086015251909101516101808401529051612d3c91611acf918491016153b4565b9150612d4782612d56565b90979096509194509092505050565b5f80826fffffffffffffffffffffffffffffffff8116608082901c612d7a82611fd4565b9450612d8581611fd4565b9350505050915091565b5f612d9b84600761480f565b90507f183227397098d014dc2822db40c0ac2e9419f4243cdcb848a1f0fac9f80000005f612dfc612df6612dd0856003612024565b610543612deb612de08b5f61480f565b6105438c601c61480f565b6105438b601b61480f565b83611ff2565b9050612e7d612e72612e59612e40612e2785610548612e1c8d600261480f565b6105438e601b61480f565b610548612e358c600361480f565b6105438d601c61480f565b610548612e4e8b600461480f565b6105438c601d61480f565b610548612e678a600561480f565b6105438b601e61480f565b61054888600161480f565b9050612e9c81610548612e91866001612024565b6105438a602661480f565b9050612ea88184611ff2565b9050612eb48185611ff2565b8552505f9050612eee612ee4612ed9612ece88601b61480f565b61054889601e61480f565b61056688602361480f565b610548875f61480f565b9050612eff81610543846002612024565b9050612f1081610543846001612024565b9050612f1c8183611ff2565b9050612f288184611ff2565b9050808460015b60200201525050505050565b5f5f5f612f71612f67612f4f89601b61480f565b610548612f5d8b601161480f565b8a60600151611ff2565b876080015161200b565b9050612faa81610543612fa0612f888b601c61480f565b610548612f968d601261480f565b8c60600151611ff2565b896080015161200b565b9050612fcf81610543612fa0612fc18b601d61480f565b610548612f968d601361480f565b9050612ff481610543612fa0612fe68b601e61480f565b610548612f968d601461480f565b92505f9050613018612f6761300a89601b61480f565b610548612f5d8b600d61480f565b905061303d81610543612fa061302f8b601c61480f565b610548612f968d600e61480f565b905061306281610543612fa06130548b601d61480f565b610548612f968d600f61480f565b905061308781610543612fa06130798b601e61480f565b610548612f968d601061480f565b91505f90506130ae6130a861309d89601f61480f565b6105488a601961480f565b84611ff2565b90506130e3816105666130dd6130c58b602761480f565b6105486130d38d601a61480f565b8c60a00151611ff2565b85611ff2565b90506130ef8185611ff2565b6040860152505f6131126130dd61310789601a61480f565b6105438a602761480f565b606090950194909452505050505050565b5f5f61318161316961315161313c612fa08a601561480f565b61054861314a8b601661480f565b8a51611ff2565b61054861315f8a601761480f565b8960200151611ff2565b61054861317789601861480f565b8860400151611ff2565b91505f6131b861319f61319589601b61480f565b886080015161200b565b6105486131ad8a600361480f565b6105438b602361480f565b90505f6131e16131c989601c61480f565b6105486131d68b5f61480f565b6105438c602461480f565b90505f61320b6131f28a601d61480f565b6105486132008c600161480f565b6105438d602561480f565b905061324a61323261322485610548868d5f0151611ff2565b610548848c60200151611ff2565b6105486132408c600461480f565b8b60400151611ff2565b93505050505f61325e6130a888602061480f565b90505f61326f6130a889602061480f565b90505f6132a761328e6132838b602261480f565b6105488c600661480f565b61056661329c8c602261480f565b6105438d600661480f565b90505f6132cb6132c56132ba8789611ff2565b6105438d602061480f565b83612024565b90506132d78188611ff2565b90505f6132ff6132f16132eb8d600661480f565b87611ff2565b6105666132eb8e602161480f565b60808a018390529050808960055b60200201525050505050505050505050565b5f61332b5f6001612024565b90505f6133395f6002612024565b90505f6133475f6003612024565b90505f61336361335888601c61480f565b61056689601b61480f565b90505f61337f61337489601d61480f565b6105668a601c61480f565b90505f61339b6133908a601e61480f565b6105668b601d61480f565b90505f6133b76133ac8b602361480f565b6105668c601e61480f565b9050836133c881610543818b61200b565b90506133d881610543878a61200b565b90506133e881610543878961200b565b90506133f9816105438d600861480f565b9050613405818a611ff2565b60c08b0152508261341a81610543818b61200b565b905061342a81610543868a61200b565b905061343a81610543868961200b565b905061344b816105438d600861480f565b9050613457818a611ff2565b60e08b0152508161346c81610543818b61200b565b905061347c81610543858a61200b565b905061348c81610543858961200b565b905061349d816105438d600861480f565b90506134a9818a611ff2565b6101008b015250806134bf81610543818b61200b565b90506134cf81610543848a61200b565b90506134df81610543848961200b565b90506134f0816105438d600861480f565b90506134fc818a611ff2565b9050808a600961330d565b6135406040518060e001604052805f81526020015f81526020015f81526020015f81526020015f81526020015f81526020015f81525090565b61354b84601c61480f565b815261355884601d61480f565b602082015261356884602361480f565b604082015261357884602661480f565b606082015261358884602561480f565b608082015261359884602461480f565b60a08201525f6135a985600261480f565b90505f6135b6865f61480f565b90505f6135ca8460400151855f0151612024565b90505f6135df85602001518660200151611ff2565b606086015190915086905f906135f59080611ff2565b90505f61361361360d89602001518a60600151611ff2565b88611ff2565b90505f61363261362b8a60a001518b6040015161200b565b8a5161200b565b90506136416132eb8288611ff2565b905061366861366261365c6136568487612024565b88612024565b8461200b565b8361200b565b905061369061368561367a8387611ff2565b6105438f600961480f565b61054360018a612024565b6101408c015250505050602085015160808601515f916136af9161200b565b90505f6136cd6136c3886060015188611ff2565b8860200151612024565b90505f6136f16136dd8487611ff2565b6105486130dd8b60a001518c5f0151612024565b905061371961370e613703838c611ff2565b6105438e600961480f565b610543600189612024565b6101608b0152505f915061373a905061373383601161200b565b8751611ff2565b90505f613747838461200b565b9050613753818261200b565b90505f613761836009611ff2565b905061378a6137846130a861377d8b60a001518c5f015161200b565b8b5161200b565b82612024565b60c089018190525f906137a59061360d9061367a908d611ff2565b90506137b88b600a60200201518261200b565b6101408c0152505086515f92506137df9150613733906137d8908061200b565b885161200b565b90505f61381f6137fa836105438a5f01518b60a00151612024565b60208901516105669061380d908061200b565b6105438b602001518c6080015161200b565b905061383c89600b602002015161054861360d61367a858d611ff2565b89600b602002015250505050505050505050565b6138e4604051806102c001604052805f81526020015f81526020015f81526020015f81526020015f81526020015f81526020015f81526020015f81526020015f81526020015f81526020015f81526020015f81526020015f81526020015f81526020015f81526020015f81526020015f81526020015f81526020015f81526020015f81526020015f81526020015f81525090565b6139196139006138f587601b61480f565b61054388602461480f565b61054861390e88602361480f565b61054389601c61480f565b815261395e61395361393a61392f88601b61480f565b61054389601e61480f565b61054861394889601c61480f565b6105438a601d61480f565b61056687602561480f565b6040820181905261397390600160441b611ff2565b604082018190526139899061056687602661480f565b60408201819052815161399c919061200b565b604082018190526139b29061054387600561480f565b604082015280516139c790600160441b611ff2565b8082526139e7906105486139dc88602361480f565b61054389602461480f565b80825260208201819052613a0390610566612ece88601d61480f565b60208201819052613a199061054387600461480f565b6020820152805160608201819052613a369061054887601e61480f565b60608201819052613a5a90610566613a4f88602561480f565b61054889602661480f565b60608201819052613a6f90610543875f61480f565b8160600181815250505f613a98613a8e8360200151846040015161200b565b836060015161200b565b9050613aa98161054388600361480f565b9050613ac1613ab987602461480f565b614000611ff2565b60808301819052613ad79061054888602361480f565b60808301819052613aea90614000611ff2565b60808301819052613b009061054888601d61480f565b60808301819052613b1390614000611ff2565b60808301819052613b299061054888601c61480f565b60808301819052613b3c90614000611ff2565b60808301819052613b529061054888601b61480f565b60808301819052613b689061056688601e61480f565b60808301819052613b7e9061054388600561480f565b6080830152613b91613ab987602561480f565b60a08301819052613ba79061054888602461480f565b60a08301819052613bba90614000611ff2565b60a08301819052613bd09061054888602361480f565b60a08301819052613be390614000611ff2565b60a08301819052613bf99061054888601e61480f565b60a08301819052613c0c90614000611ff2565b60a08301819052613c229061054888601d61480f565b60a08301819052613c389061056688602661480f565b60a08301819052613c4d90610543885f61480f565b60a0830181905260808301515f91613c65919061200b565b9050613c768161054389600461480f565b9050613c90613c8688601d61480f565b8760400151611ff2565b60c08401819052613ca99061054861315f8a601c61480f565b60c08401819052613cc990610548613cc28a601b61480f565b8951611ff2565b60c08401819052613cdf9061054889600161480f565b60c0840181905260e08401819052613cfc9061056689601e61480f565b60c0840152613d0f61335888602361480f565b610140840152613d2e613d2388602661480f565b61056689601e61480f565b610120840152610140830151613d5390613d489080611ff2565b846101400151612024565b610280840152610140830151613d9590613d8a90613d839061054360015f5160206153fd5f395f51905f5261519c565b600161200b565b846101200151611ff2565b6101608401819052613dcc90613dbe90610543613db38b600261480f565b6105438c600361480f565b6105436132eb8a600a61480f565b6101a0860152610280830151613dee90613dbe90610543613db38b600261480f565b6101c086015260c0830151613e1690610543613e0b8a600261480f565b6105438b600361480f565b6101e08401525f613e35613e2b89601e61480f565b8560e00151612024565b9050613e446137848283611ff2565b6101a0850152613e5861317789602561480f565b6101008501819052613e7c90610548613e728b602461480f565b8a60200151611ff2565b6101008501819052613e969061054861314a8b602361480f565b610100850152613eb5613eaa89602661480f565b856101000151612024565b6101008501525f613eca6133908a602561480f565b9050613f1e613ef8612df6613d8388610140015160015f5160206153fd5f395f51905f52610543919061519c565b610543613d8388610100015160015f5160206153fd5f395f51905f52610543919061519c565b610180860152610100850151613f4390613f389080611ff2565b866101000151612024565b6101c0860152610180850151613f7690613f62906105438c600761480f565b610543613f708c600a61480f565b89611ff2565b6101e0880152610280850151613f9590613f62906105438c600761480f565b6102008801526101c0850151613fb490613f62906105438c600761480f565b6102208801526101a0850151613fcf906105438b600761480f565b610200860152613fee613fe38a602461480f565b6105668b601c61480f565b61022086015261014085015161402d906133909061402290613d839061054360015f5160206153fd5f395f51905f5261519c565b876102200151611ff2565b61024086018190526101e0860151610260870181905261406491610548906105436140598e600561480f565b6105438f600261480f565b610260860181905260c08601516140879190610548906105436140598e5f61480f565b610260860181905261020086015161409f919061200b565b61026086018190526140b59061365c908661200b565b6102a086018190526140cf90610543613f708c600a61480f565b6102a0860181905287600c6020020152505050505050505050565b6141606040518061022001604052805f81526020015f81526020015f81526020015f81526020015f81526020015f81526020015f81526020015f81526020015f81526020015f81526020015f81526020015f81526020015f81526020015f81526020015f81526020015f81526020015f81525090565b61417961416e85601b61480f565b61054886600261480f565b815261419461418985601c61480f565b61054886600361480f565b60208201526141b26141a785601d61480f565b61054886600461480f565b60408201526141d06141c585601e61480f565b61054886600561480f565b60608201528051614202906141fb906141f4906141ed9080611ff2565b8451611ff2565b8351611ff2565b8251611ff2565b60808201526020810151614240906142369061422c906142229080611ff2565b8460200151611ff2565b8360200151611ff2565b8260200151611ff2565b60a0820152604081015161427e906142749061426a906142609080611ff2565b8460400151611ff2565b8360400151611ff2565b8260400151611ff2565b60c082015260608101516142bc906142b2906142a89061429e9080611ff2565b8460600151611ff2565b8360600151611ff2565b8260600151611ff2565b60e0820152608081015160a08201516142d5919061200b565b61010082015260c081015160e08201516142ef919061200b565b61012082015260a081015161431390614308908061200b565b82610120015161200b565b61014082015260e08101516143379061432c908061200b565b82610100015161200b565b61016082015261012081015161434d908061200b565b6101e0820181905261436e90614363908061200b565b82610160015161200b565b6101e0820152610100810151614384908061200b565b6101a082018190526143a59061439a908061200b565b82610140015161200b565b6101a082018190526101608201516143bc9161200b565b6101808201526101408101516101e08201516143d8919061200b565b6101c08201526143ec612df685600b61480f565b61020082018190526102408401516101808301516144179261054891610543906105668a602361480f565b83601260200201526144478360136020020151610548836102000151610543856101a001516105668a602461480f565b83601360200201526144778360146020020151610548836102000151610543856101c001516105668a602561480f565b83601460200201526144a78360156020020151610548836102000151610543856101e001516105668a602661480f565b836015602002015250505050565b6145076040518061016001604052805f81526020015f81526020015f81526020015f81526020015f81526020015f81526020015f81526020015f81526020015f81526020015f81526020015f81525090565b5f604051806080016040528061453c7f10dc6e9c006ea38b04b1e03b4bd9490c0d03f98929ca1d7fb56821fd19d3b6e7611fd4565b815260200161456a7f0c28145b6a44df3e0149b3d0a30b3bb599df9756d4dd9b84a86b38cfb45a740b611fd4565b81526020016145977e544b8338791518b2c7645a50392798b21f75bb60e3596170067d00141cac15611fd4565b81526020016145c57f222c01175718386f2e2e82eb122789e352e105a3b8fa852613bc534433ee428b611fd4565b905290506145e26145d786601b61480f565b61054887600261480f565b61012083018190526146169061460b90613d8a906146009080611ff2565b856101200151611ff2565b836101200151611ff2565b825261462385601c61480f565b602083015261463385601d61480f565b604083015261464385601e61480f565b60608301528151602083015161466b91613a8e91614661919061200b565b846040015161200b565b608083015261467e6130a886600c61480f565b610140830152815161469f9061469590835f610dc8565b836080015161200b565b60a08301526146cb84601660200201516105488461014001516105438660a001516105668b602361480f565b6102c085015260208201516146e69061469590836001610dc8565b60c083015261471284601760200201516105488461014001516105438660c001516105668b602461480f565b6102e0850152604082015161472d9061469590836002610dc8565b60e083015261475984601860200201516105488461014001516105438660e001516105668b602561480f565b61030085015260608201516147749061469590836003610dc8565b6101008301526147a284601960200201516105488461014001516105438661010001516105668b602661480f565b846019612f2f565b5f6147b68184816107b1565b905060015b601a811015614808576147fe826105488684601a81106147dd576147dd615188565b6020020151866147ee60018761519c565b60198110610dc857610dc8615188565b91506001016147bb565b5092915050565b5f82826027811115614823576148236153e8565b6028811061483357614833615188565b60200201519392505050565b604051806103c001604052805f81526020015f81526020015f815260200161487860405180604001604052805f81526020015f81525090565b815260200161489860405180604001604052805f81526020015f81525090565b81526020016148b860405180604001604052805f81526020015f81525090565b81526020016148d860405180604001604052805f81526020015f81525090565b81526020016148f860405180604001604052805f81526020015f81525090565b815260200161491860405180604001604052805f81526020015f81525090565b815260200161493860405180604001604052805f81526020015f81525090565b815260200161495860405180604001604052805f81526020015f81525090565b815260200161497860405180604001604052805f81526020015f81525090565b815260200161499860405180604001604052805f81526020015f81525090565b81526020016149b860405180604001604052805f81526020015f81525090565b81526020016149d860405180604001604052805f81526020015f81525090565b81526020016149f860405180604001604052805f81526020015f81525090565b8152602001614a1860405180604001604052805f81526020015f81525090565b8152602001614a3860405180604001604052805f81526020015f81525090565b8152602001614a5860405180604001604052805f81526020015f81525090565b8152602001614a7860405180604001604052805f81526020015f81525090565b8152602001614a9860405180604001604052805f81526020015f81525090565b8152602001614ab860405180604001604052805f81526020015f81525090565b8152602001614ad860405180604001604052805f81526020015f81525090565b8152602001614af860405180604001604052805f81526020015f81525090565b8152602001614b1860405180604001604052805f81526020015f81525090565b8152602001614b3860405180604001604052805f81526020015f81525090565b8152602001614b5860405180604001604052805f81526020015f81525090565b8152602001614b7860405180604001604052805f81526020015f81525090565b8152602001614b9860405180604001604052805f81526020015f81525090565b8152602001614bb860405180604001604052805f81526020015f81525090565b905290565b604051806101c00160405280614bf060405180608001604052805f81526020015f81526020015f81526020015f81525090565b8152602001614c1c60405180608001604052805f81526020015f81526020015f81526020015f81525090565b8152602001614c4860405180608001604052805f81526020015f81526020015f81526020015f81525090565b8152602001614c7460405180608001604052805f81526020015f81526020015f81526020015f81525090565b8152602001614ca060405180608001604052805f81526020015f81526020015f81526020015f81525090565b8152602001614ccc60405180608001604052805f81526020015f81526020015f81526020015f81525090565b8152602001614cf860405180608001604052805f81526020015f81526020015f81526020015f81525090565b8152602001614d2460405180608001604052805f81526020015f81526020015f81526020015f81525090565b8152602001614d31614fc1565b8152602001614d3e614fef565b8152602001614d4b61500e565b8152602001614d58614eca565b8152602001614d8460405180608001604052805f81526020015f81526020015f81526020015f81525090565b8152602001614bb860405180608001604052805f81526020015f81526020015f81526020015f81525090565b604051806101000160405280614def6040518060c001604052805f81526020015f81526020015f81526020015f81526020015f81526020015f81525090565b8152602001614dfc614e8c565b8152602001614e09614eca565b8152602001614e16614eca565b81526020015f81526020015f81526020015f81526020015f81525090565b604051806108c001604052806046906020820280368337509192915050565b604051806108c001604052806046905b604080518082019091525f8082526020820152815260200190600190039081614e635790505090565b6040518061032001604052806019906020820280368337509192915050565b6040518061012001604052806009906020820280368337509192915050565b604051806103800160405280601c906020820280368337509192915050565b6040518061052001604052806029906020820280368337509192915050565b60405180610da00160405280606d906020820280368337509192915050565b604051806103a00160405280601d906020820280368337509192915050565b6040518060a001604052806005906020820280368337509192915050565b6040518061010001604052806008906020820280368337509192915050565b604051806103400160405280601a906020820280368337509192915050565b604051806101a00160405280600d906020820280368337509192915050565b604051806103800160405280601c905b614fd9614f64565b815260200190600190039081614fd15790505090565b6040518061050001604052806028906020820280368337509192915050565b604051806103600160405280601b905b61504560405180608001604052805f81526020015f81526020015f81526020015f81525090565b81526020019060019003908161501e5790505090565b5f5f5f5f6040858703121561506e575f5ffd5b843567ffffffffffffffff811115615084575f5ffd5b8501601f81018713615094575f5ffd5b803567ffffffffffffffff8111156150aa575f5ffd5b8760208284010111156150bb575f5ffd5b60209182019550935085013567ffffffffffffffff8111156150db575f5ffd5b8501601f810187136150eb575f5ffd5b803567ffffffffffffffff811115615101575f5ffd5b8760208260051b8401011115615115575f5ffd5b949793965060200194505050565b634e487b7160e01b5f52601160045260245ffd5b8082028115828204841417611fec57611fec615123565b5f5f8585111561515c575f5ffd5b83861115615168575f5ffd5b5050820193919092039150565b80820180821115611fec57611fec615123565b634e487b7160e01b5f52603260045260245ffd5b81810381811115611fec57611fec615123565b5f600182016151c0576151c0615123565b5060010190565b80356020831015611fec575f19602084900360031b1b1692915050565b5f8183825b60098110156152085781518352602092830192909101906001016151e9565b5050506101208201905092915050565b634e487b7160e01b5f52601260045260245ffd5b5f8261523a5761523a615218565b500490565b5f8183825b6029811015615263578151835260209283019290910190600101615244565b5050506105208201905092915050565b5f8183825b606d811015615297578151835260209283019290910190600101615278565b505050610da08201905092915050565b5f8183825b601d8110156152cb5781518352602092830192909101906001016152ac565b5050506103a08201905092915050565b5f8183825b60058110156152ff5781518352602092830192909101906001016152e0565b50505060a08201905092915050565b5f8261531c5761531c615218565b500690565b5f8161532f5761532f615123565b505f190190565b5f82518060208501845e5f920191825250919050565b5f6020828403121561535c575f5ffd5b815180151581146119ba575f5ffd5b634e487b7160e01b5f52604160045260245ffd5b81515f90829060208501835b828110156153a957815184526020938401939091019060010161538b565b509195945050505050565b5f8183825b600d8110156153d85781518352602092830192909101906001016153b9565b5050506101a08201905092915050565b634e487b7160e01b5f52602160045260245ffdfe30644e72e131a029b85045b68181585d2833e84879b9709143e1f593f0000001a2646970667358221220685159169cb0c453fbf2557681c6041aff031fe8ce682d481c7e62810f6feed864736f6c634300081c0033","linkReferences":{}},"methodIdentifiers":{"canInteract(address)":"fe436c53","identities(address)":"f653b81e","publicInputs(uint256)":"6ae659ee","registerIdentity(bytes)":"673bec8a","verifier()":"2b7ac3f3"},"id":39}